:10000000D2B722C2B7227A1279FA78FAD8FED9FA90
:10001000DAF622120003120006120006120006127F
:100020000006120006120006120006120006120058
:10003000061200061200002212000312000612002F
:100040000012000612000312000612000012000641
:100050001200031200061200001200061200031222
:100060000006120000120006120003120006120021
:1000700000120006221200031200061200001200F5
:1000800006120006120006120006120006120006F2
:0D00900012000612000612000612000622E1
:00000001FF
