:030000000200A05B
:10000300D2B722C2B7227A1279FA78FAD8FED9FA8D
:10001300DAF6221200061200091200091200091270
:100023000009120009120009120009120009120046
:10003300091200091200032212000612000912001D
:10004300031200091200061200091200031200092C
:100053001200061200091200031200091200061210
:10006300000912000312000912000612000912000F
:1000730003120009221200061200091200031200E3
:1000830009120009120009120009120009120009DD
:100093001200091200091200091200092275817F5A
:1000A30075E800759500759E0075F800759D80755F
:1000B300B0FF20E80B20E91020EA1512000380F2BC
:1000C30030E8EF12001680F830E9E712003B80F8C1
:0800D30030E8DF12007880F82C
:00000001FF
