:030000000200EB10
:03000B00020019D7
:10000E00C0F9A4B0999282F88090FF758C93758A8E
:10001E007FC0D0C0F0C0E0C083C08220E83705307A
:10002E00E530B46430753000E5322401D4F532B4D5
:10003E006023753200E5332401D4F533B4601675B0
:10004E003300E5342401D4F5341201A1B41306753E
:10005E00340120E93890000E853591E532540F9326
:10006E00F593E532C4540F93F594E533540F93F59D
:10007E008EE533C4540F93F58FE534540F93F596F4
:10008E00E53420E40274A0C4540F93F597E59E5412
:10009E0001602D1531E531B46426753100E5365415
:1000AE000FB4000DE53654F0C4B4000D75E8FF80B2
:1000BE000FE5369401F536800794014490C4F53669
:1000CE00D082D083D0E0D0F0D0D032758911C28CDE
:1000DE00C28D758C93758A7FD28CD2A92275817F41
:1000EE0075E800759500759E0075F80075325075AF
:1000FE003359753411753508C20075369975370048
:10010E007538001200D9D2AF30EB02C2E920E942B5
:10011E0030E8F520FB1330FBFDE5342401D4F53433
:10012E001201A1B4130375340120FA1030FAFDE563
:10013E00332401D4F533B4600375330020F9103045
:10014E00F9FDE5322401D4F532B4600375320002B4
:10015E00011630E9B312017F20F91312017F30F935
:10016E00FAE5362401D4F536B4990375360002014A
:10017E006090000E7591FF7597C07596C0758FC013
:10018E00758EC0E536540F93F593E536C4540F9330
:10019E00F59422E534B4120C20000BE535B2E2F5ED
:0701AE0035853591C20022E6
:00000001FF
