:030000000200E516
:03000B00020029C7
:03001B000200B62A
:10001E00C0F9A4B0999282F88090FF758C93758A7E
:10002E007FC0D0C0F0C0E0C083C08220E83705306A
:10003E00E530B46430753000E5312401D4F531B4C7
:10004E006023753100E5322401D4F532B4601675A3
:10005E003200E5332401D4F53312029FB413067532
:10006E00330120E93290001E853491E531540F930F
:10007E00F593E531C4540F93F594E532540F93F58F
:10008E008EE532C4540F93F58FE533540F93F596E6
:10009E00E53320E40274A0C4540F93F597D082D0B8
:1000AE0083D0E0D0F0D0D032C28FB2A0B2A1758D85
:1000BE00FD758B4A32758911C28CC28D758C937504
:1000CE008A7FD28CD2A922758911C28EC28F758D6C
:1000DE00FD758B4AD28E2275817F75E8007595006D
:1000EE00759E0075F800759C03D2A0D2A175315093
:1000FE00753259753311753408C200753500753671
:10010E000075371275380CC2011200C31200D5D219
:10011E00AF30EB051201BAC2E920E94230E8F22015
:10012E00FB1330FBFDE5332401D4F53312029FB4EB
:10013E00130375330120FA1030FAFDE5322401D491
:10014E00F532B4600375320020F91030F9FDE53157
:10015E002401D4F531B4600375310002011F30E97A
:10016E00B012026620FB1612026630FBFAE5372447
:10017E0001D4F5371202B3B4130375370120FA1305
:10018E0012026630FAFAE5362401D4F536B460036D
:10019E0075360020F91312026630F9FAE53524019E
:1001AE00D4F535B4600375350002016CD2E920EF49
:1001BE000D20EE1420ED1920EC1E20EBEF2220EF87
:1001CE00FDD2EA12023180E420EEFD12023180DC13
:1001DE0020EDFD1201FD80D420ECFD120231120241
:1001EE003112023112023112023112023180BD750A
:1001FE00E8FF7595FF759E03120253120259120203
:10020E005912025912025912025912025912025966
:10021E0012025975E800759500759E00120256126D
:10022E0002592275E8FF7595FF759E03120253124F
:10023E00025912025975E800759500759E0012025A
:10024E005612025922D2AB22C2AB227A1479FA7814
:10025E00FAD8FED9FADAF62290001E853891E535E5
:10026E00540F93F593E535C4540F93F594E5365436
:10027E000F93F58EE536C4540F93F58FE537540F73
:10028E0093F596E53720E40274A0C4540F93F597C6
:10029E0022E533B4120C20000BE534B2E2F53485BE
:1002AE003491C20022E537B4120C2001F7E538B2C2
:0902BE00E2F538853891C20122F5
:00000001FF
