:0300000002012DCD
:03000B00020029C7
:03001B000200FEE2
:10001E00C0F9A4B0999282F88090FF758C93758A7E
:10002E007FC0D0C0F0C0E0C083C08220E83705306A
:10003E00E530B46430753000E5322401D4F532B4C5
:10004E006023753200E5332401D4F533B4601675A0
:10005E003300E5342401D4F5341202E4B4130675EA
:10006E00340120E93890001E853591E532540F9306
:10007E00F593E532C4540F93F594E533540F93F58D
:10008E008EE533C4540F93F58FE534540F93F596E4
:10009E00E53420E40274A0C4540F93F597E59E5402
:1000AE000160421531E531B4643B753100E53654DB
:1000BE000FB4000AE536C494014490C48004E536BA
:1000CE009401F536B4001E75373BE5379401F537CC
:1000DE00B4001275373BE5389401F538B400067557
:1000EE00380C1202ABD082D083D0E0D0F0D0D03218
:1000FE00C28FB2A0B2A1758DFD758B4A3275891172
:10010E00C28CC28D758C93758A7FD28CD2A92275C2
:10011E008911C28EC28F758DFD758B4AD28E227556
:10012E00817F75E800759500759E0075F800759CC9
:10013E0003D2A0D2A175325075335975341175356D
:10014E0008C20075361575371575380175390CC22C
:10015E000112010B12011DD2AF30EB051201FFC2CD
:10016E00E920E94230E8F220FB1330FBFDE53424B0
:10017E0001D4F5341202E4B4130375340120FA10DD
:10018E0030FAFDE5332401D4F533B4600375330042
:10019E0020F91030F9FDE5322401D4F532B46003B4
:1001AE0075320002016730E9B01202AB20FB131268
:1001BE0002AB30FBFAE5382401D4F538B4130375DD
:1001CE00380120FA131202AB30FAFAE5372401D4C3
:1001DE00F537B4600375370020F9131202AB30F90E
:1001EE00FAE5362401D4F536B46003753600020103
:1001FE00B4D2E920EF0D20EE1420ED1920EC1E20D4
:10020E00EBEF2220EFFDD2EA12027680E420EEFD23
:10021E0012027680DC20EDFD12024280D420ECFD2D
:10022E0012027612027612027612027612027612FC
:10023E00027680BD75E8FF7595FF759E03120298D4
:10024E0012029E12029E12029E12029E12029E1214
:10025E00029E12029E12029E75E800759500759E12
:10026E000012029B12029E2275E8FF7595FF759E85
:10027E000312029812029E12029E75E800759500F6
:10028E00759E0012029B12029E22D2AB22C2AB229C
:10029E007A1479FA78FAD8FED9FADAF62290001E94
:1002AE007591FFE536540F93F593E536C4540F93CD
:1002BE00F594E537540F93F58EE537C4540F93F547
:1002CE008FE538540F93F596E53820E40274A0C4F8
:1002DE00540F93F59722E534B4120C20000BE5353C
:0A02EE00B2E2F535853591C2002219
:00000001FF
