:0300000002016892
:03000B00020029C7
:03001B00020139A6
:10001E00C0F9A4B0999282F88090FF758C93758A7E
:10002E007FC0D0C0F0C0E0C083C08220E83705306A
:10003E00E530B46430753000E5322401D4F532B4C5
:10004E006023753200E5332401D4F533B4601675A0
:10005E003300E5342401D4F53412031FB4130675AE
:10006E00340120E93890001E853591E532540F9306
:10007E00F593E532C4540F93F594E533540F93F58D
:10008E008EE533C4540F93F58FE534540F93F596E4
:10009E00E53420E40274A0C4540F93F597E59E5402
:1000AE0001607D1531E531B46476753100E5365465
:1000BE000FB4002BE53654F0C4B4002BE537540FC3
:1000CE00B4002DE53754F0C4B40030E538540FB405
:1000DE000035E53854F0C4B4003B75E8FF8041E5C7
:1000EE00369401F536803994014490C4F53680304B
:1000FE00E5379401F537753659802594014490C43F
:10010E00F5377536598019E5389401F53875365935
:10011E00753759800B753809753659753759800002
:10012E00D082D083D0E0D0F0D0D032C28FB2A0B285
:10013E00A1758DFD758B4A32758911C28CC28D7574
:10014E008C93758A7FD28CD2A922758911C28EC2E8
:10015E008F758DFD758B4AD28E2275817F75E80065
:10016E00759500759E0075F800759C03D2A0D2A1FE
:10017E00753250753359753411753508C2007536A0
:10018E001575370075380075390CC201120146120B
:10019E000158D2AF30EB0512023AC2E920E94230E3
:1001AE00E8F220FB1330FBFDE5342401D4F53412C4
:1001BE00031FB4130375340120FA1030FAFDE53332
:1001CE002401D4F533B4600375330020F91030F9EF
:1001DE00FDE5322401D4F532B4600375320002011C
:1001EE00A230E9B01202E620FB131202E630FBFA4F
:1001FE00E5382401D4F538B4130375380020FA130A
:10020E001202E630FAFAE5372401D4F537B460036A
:10021E0075370020F9131202E630F9FAE53624019B
:10022E00D4F536B460037536000201EFD2E920EF43
:10023E000D20EE1420ED1920EC1E20EBEF2220EF06
:10024E00FDD2EA1202B180E420EEFD1202B180DC92
:10025E0020EDFD12027D80D420ECFD1202B11202BF
:10026E00B11202B11202B11202B11202B180BD7509
:10027E00E8FF7595FF759E031202D31202D9120282
:10028E00D91202D91202D91202D91202D91202D9E6
:10029E001202D975E800759500759E001202D612ED
:1002AE0002D92275E8FF7595FF759E031202D312CF
:1002BE0002D91202D975E800759500759E001202DA
:1002CE00D61202D922D2AB22C2AB227A1479FA7894
:1002DE00FAD8FED9FADAF62290001E7591FFE536AD
:1002EE00540F93F593E536C4540F93F594E53754B4
:1002FE000F93F58EE537C4540F93F58FE538540FF1
:10030E0093F596E53820E40274A0C4540F93F59744
:10031E0022E534B4120C20000BE535B2E2F535853A
:05032E003591C2002220
:00000001FF
