:0300000002015B9F
:03000B00020029C7
:03001B0002012CB3
:10001E00C0F9A4B0999282F88090FF758C93758A7E
:10002E007FC0D0C0F0C0E0C083C08220E83705306A
:10003E00E530B46430753000E5322401D4F532B4C5
:10004E006023753200E5332401D4F533B4601675A0
:10005E003300E5342401D4F534120312B4130675BB
:10006E00340120E93890001E853591E532540F9306
:10007E00F593E532C4540F93F594E533540F93F58D
:10008E008EE533C4540F93F58FE534540F93F596E4
:10009E00E53420E40274A0C4540F93F597E59E5402
:1000AE000160701531E531B46469753100E536547F
:1000BE000FB4000AE536C494014490C48004E536BA
:1000CE009401F536B4FF4C753659E537540FB4002C
:1000DE0016E537B40007E538B400108036E537C4AE
:1000EE0094014490C48004E5379401F537B400239D
:1000FE0075373BE538540FB4000AE538C494014413
:10010E0090C48004E5389401F538B4FF06753800C4
:10011E001202D9D082D083D0E0D0F0D0D032C28FAC
:10012E00B2A0B2A1758DFD758B4A32758911C28C44
:10013E00C28D758C93758A7FD28CD2A92275891146
:10014E00C28EC28F758DFD758B4AD28E2275817FC0
:10015E0075E800759500759E0075F800759C03D2C4
:10016E00A0D2A1753250753359753411753508C248
:10017E000075361575370075380175390CC20112C8
:10018E00013912014BD2AF30EB0512022DC2E9201C
:10019E00E94230E8F220FB1330FBFDE5342401D4B4
:1001AE00F534120312B4130375340120FA1030FA29
:1001BE00FDE5332401D4F533B4600375330020F923
:1001CE001030F9FDE5322401D4F532B460037532F6
:1001DE000002019530E9B01202D920FB131202D9A8
:1001EE0030FBFAE5382401D4F538B4130375380121
:1001FE0020FA131202D930FAFAE5372401D4F53772
:10020E00B4600375370020F9131202D930F9FAE5FC
:10021E00362401D4F536B460037536000201E2D2FD
:10022E00E920EF0D20EE1420ED1920EC1E20EBEF4F
:10023E002220EFFDD2EA1202A480E420EEFD12028B
:10024E00A480DC20EDFD12027080D420ECFD1202A1
:10025E00A41202A41202A41202A41202A41202A454
:10026E0080BD75E8FF7595FF759E031202C61202DA
:10027E00CC1202CC1202CC1202CC1202CC1202CC44
:10028E001202CC1202CC75E800759500759E001214
:10029E0002C91202CC2275E8FF7595FF759E0312F6
:1002AE0002C61202CC1202CC75E800759500759E3E
:1002BE00001202C91202CC22D2AB22C2AB227A1495
:1002CE0079FA78FAD8FED9FADAF62290001E7591EC
:1002DE00FFE536540F93F593E536C4540F93F5941A
:1002EE00E537540F93F58EE537C4540F93F58FE52C
:1002FE0038540F93F596E53820E40274A0C4540FD9
:10030E0093F59722E534B4120C20000BE535B2E2DA
:08031E00F535853591C200227E
:00000001FF
