:030000000200ED0E
:03001B0002001EC2
:10001E00C28FB2A0B2A1758DFD758B4A3275891152
:10002E00C28EC28F758DFD758B4AD28E2220EF0A3D
:10003E0020EE1120ED1620EC1B2220EFFDD2EA124D
:10004E0000AD80E920EEFD1200AD80E120EDFD1245
:10005E00007980D920ECFD1200AD1200AD1200AD7A
:10006E001200AD1200AD1200AD80C275E8FF75959D
:10007E00FF759E031200CF1200D51200D51200D5C7
:10008E001200D51200D51200D51200D51200D5756A
:10009E00E800759500759E001200D21200D52275EB
:1000AE00E8FF7595FF759E031200CF1200D5120062
:1000BE00D575E800759500759E001200D21200D518
:1000CE0022D2AB22C2AB227A1479FA78FAD8FED9B0
:1000DE00FADAF622C0F9A4B0999282F88090FF75F0
:1000EE00817F75E800759500759E0075F800759C0A
:1000FE000FD2A0D2A1D2A2D2A312002BD2AF120045
:03010E003B80FB38
:00000001FF
